:020000040000FA
:08000000803102288731DA2F5C
:100734000134013401340134013401346400800192
:100744000131890BA12B0034103051018D008F0130
:10075400910105309300920110180800AE2B5D3012
:100764004F01960080309700473098007F30990001
:1007740037309A00DF309B0008008331B123833186
:100784008431212483318331A62383318331F123BE
:1007940083318331DF230800F600760841019E008F
:1007A4009317131313141318D52B0D08F400F30126
:1007B4000C08F3070318F40A0800423040019F00B4
:1007C400F0309D0060309C001D08D900D8011C0841
:1007D400D8044E018C12903040019E000800420162
:1007E4008E018F0190019101920193018D014101CC
:1007F4009E019B01940102309500960197019A0194
:1008040099011F3098008430930008007408F600A2
:100814007308F50075087604031908005330F700CF
:10082400F80164000130F7020030F83B77087804DF
:10083400031D132C0130F5020030F63B0C2C400153
:100844009A0199019601970198019501C930910087
:10085400FF3092008730930094017E01D901CE01CC
:10086400C301E4010130B800DA01E501C401B901B2
:10087400CF01E601BA01C501D001DB010800F7018F
:10088400F801730874040319612CF901F90AF41BC3
:100894004E2CF335F40D482CF735F80D7408760218
:1008A400031D562C73087502031C5D2C7308F50296
:1008B4007408F63B7714F436F30CF90B4E2C7808D5
:1008C400F4007708F3000800711F742C71131914D5
:1008D40071117110F0137210F110F0117011F11305
:1008E400F0100800F11CF019792C701D8A2C1910D5
:1008F400F01D812CF11B7214F117F0110800701D0A
:10090400882CF0187214F014701108007214080086
:100914007119080071180800F01B0800F11808008C
:10092400F019080070190800F11B0800F0180800FD
:1009340019140800F01DBB2CD00A0319D10A003089
:100944005102193003195002031CAC2CD001D101FF
:1009540004309A067112F1117013EC01EC0AEB01E8
:10096400EB0AEE01EE0AED01ED0AEA01EA0AFD01E5
:10097400FD0A701DCD2C1A157112F1117013EC01C2
:10098400EC0AEB01EB0AEE01EE0AED01ED0AEA01D5
:10099400EA0AFD01FD0AF11FDE2CD00A0319D10A6F
:1009A40000305102193003195002031C0800D00111
:1009B400D10104309A060800F01CE22C1A15080034
:1009C400711D7118E92CF01BE92CF11CF82CD00ACC
:1009D4000319D10A00305102033003195002031CD9
:1009E4000800D001D10104309A0608001A11080049
:1009F400711E182DED01ED0A0A2D19150430082D6C
:100A04009916D401D501D201D3010530EE002A2D67
:100A14006E08013A0319FF2C053A0319022D013A15
:100A240003192A2D033A0319032D2A2DEE01EE0A88
:100A3400222D99120230202D19110330ED002A2D98
:100A44006D08013A03191B2D033A03191E2D2A2D93
:100A5400F11D482DEB01EB0A3A2D99140430382D81
:100A64001916D401D501D201D3010530EC005A2D59
:100A74006C08013A03192F2D053A0319322D013A56
:100A840003195A2D033A0319372D5A2DEC01EC0A98
:100A9400522D19120230502D99100330EB005A2DAB
:100AA4006B08013A03194B2D033A03194E2D5A2DA5
:100AB400701F8A2DEA01EA0A762D19130230FD000F
:100AC400080099110330FD00080018160430FD00D9
:100AD40008009917D401D501D201D3010630FD00D5
:100AE40008000530FD0008007D08013A03195F2D58
:100AF400033A0319632D013A0319672D073A0319C1
:100B04006B2D013A03199D2D033A0319732D9D2D65
:100B1400FD01FD0A952D99130230EA000800181210
:100B24000330EA0008006A08013A03198D2D033ADC
:100B34000319912D9D2D0800F301F30AF40184316A
:100B4400082485314001CC01CD01FC018331BF2350
:100B54008531D401D501D201D3017010CA01CB0172
:100B640071131914DF01DE01640005307D06031DD5
:100B7400CF2D00308331CE23853174084001CF005E
:100B84007308CE0001304F02513003194E02031C8A
:100B9400CF2D99137014CA01CB01F301F30AF401A8
:100BA4008431082485314E018C1EB62D8331DF2318
:100BB400853186318126853105307D060319EA2D7C
:100BC40005306E060319EA2D05306C06031D592EF7
:100BD400D40A0319D50A00305502643003195402AB
:100BE400031C0B2ED401D50105307D06031D082EF0
:100BF400D20A0319D30A003053024B3003195202AC
:100C0400031C0B2ED201D301F0150B2EF015D401C9
:100C1400D50100308331CE2385317C35203E8600DA
:100C240087017308C03F7408C13F7C35203E8600AD
:100C34008701403FFA00413FFB007A084001CC079E
:100C44007B08CD3DFC0A0A307C02031C412EFC01CA
:100C54000A30F300F4014D08F6004C08F500843125
:100C6400412485317408C9007308C800CC01CD0142
:100C740000304902713003194802031870157C359D
:100C8400203E86008701403FFA00413FFB000130CF
:100C94007B02513003197A02031C5D2E05307D0658
:100CA400031D5D2E99137014CA01CB015D2ED4016E
:100CB400D501D201D301701C712ECA0A0319CB0AC3
:100CC40000304B02643003194A02031C712E0530B4
:100CD4007D06031D712E99177010CA01CB01DA0A23
:100CE40014305A02031CB62DDA018431FA248531FA
:100CF40084319C248531843166248531B62D8D1C44
:100D04000D199B2E0D1A0E199B2E8E180E189B2E44
:100D14008D19711A9B2EF11D72189B2E711D71185D
:100D24009B2EE90A0B306902031C9C2EE901711603
:100D34009C2EE9018D1C0D19B62E0D1A0E1DB62E12
:100D44008E180E18B62E8D19711AB62EF11D721842
:100D5400B62E711D7118B62EE50A0B306502031C00
:100D6400B72EE5017017B72EE5010D190D1ACD2E1A
:100D74000E18711ACD2EF11D7218CD2E711D711819
:100D8400CD2EE80A0B306802031CCE2EE801711246
:100D9400F115F012CE2EE8018D1E0E1CE32E711EED
:100DA400F119E32E7118E32EF01EE72EDF0A0B3043
:100DB4005F02031CE72EDF017112F115F0127016A9
:100DC400E72EDF018D1EE72EF016711EF1191F2F7D
:100DD400DC010D0C890C0139F3000D0E01390907F2
:100DE4007304DC005C080339031D012FE70A063095
:100DF4006702031C032FE70171151910032FE70184
:100E04007111DB010E080139F300F335F335F335C5
:100E14000E0C0139090709077304DB005B080C3960
:100E2400031D1D2FE60A06306602031C1F2FE60170
:100E3400711419101F2FE60171108D19422FD60A53
:100E44000319D70A003057020B3003195602031C4A
:100E5400342F03305702E930031956020318342F94
:100E6400F116492F03305702E93003195602031CC7
:100E7400492FE930D6000330D700F0171910492F55
:100E8400D601D701F013F11E492F7117F112711E0B
:100E9400F1194E2F701FC42F16118D18711E602F5B
:100EA400E40A0B306402031C612FE4017112F11493
:100EB4009912EE01EE0AED01ED0A612FE4010E1C18
:100EC400742F8E1C711E722FE30A0B306302031CF5
:100ED400802FE30171129912F11F802FF113802FDB
:100EE400E301802F8E1C711E722FE30A0B30630204
:100EF400031C802FE30171129912F1148E1C962F9A
:100F04000E1CF11D942FE20A0B306202031CA22F67
:100F1400E201F1111912F11BF113701EA22F7012CC
:100F24007117A22FE201A22F0E1CF11D942FE20AC9
:100F34000B306202031CA22FE201F111F114191209
:100F44000E1D701FAF2FE10A0B306102031CB02F7E
:100F5400E101701371169913B02FE101701F08009D
:100F64008E18B62F0E1CB82F8D1CC22FE00A0B3022
:100F74006002031C0800E00170139913F1140800C7
:100F8400E00108008E18D02FDD01DE0A0B305E026E
:100F9400031C08000B30DE0016110800DE01DD0A18
:100FA4000B305D02031C08000B30DD001615080031
:100FB40083319A238731FD0083319B238731EA00F3
:100FC40083319C238731EB0083319D238731EC00EF
:100FD40083319E238731ED0083319F238731EE00D7
:100FE400F001F101F201FC012030840000308500A1
:0C0FF4004A308331A023400185319E2D3E
:020000040001F9
:0A000E009C3FFF3F9F0FFF0FFF3FD5
:00000001FF
