:08000000803102288431662CD6
:1008C000640080010131890B612C00340130FB0090
:1008D000FC00E600E700E8002030F001F101FD0136
:1008E000840000308500463084316024843140012A
:1008F000792CF201F20AF301502584314001CC0138
:10090000CD01FD015E278431D401D501D201D3018F
:100910007010CA01CB01F1121914DE016400053018
:100920007B06031DA42C00303F2584317308400151
:10093000CF007208CE0000304F02B73003194E02CC
:10094000031CA42CFB278431F201F20AF301502589
:1009500084314E018C1E8E2C4C2784319B25843192
:1009600005307C060319B82C05306706031D1A2DC7
:10097000D40A0319D50A0030550264300319540211
:10098000031CD12CD401D501D20A0319D30A00309B
:1009900053024B3003195202031CD12CD201D30154
:1009A000F01500303F2584317D35203E86008701DB
:1009B0007208C03F7308C13F7D35203E8600403F2E
:1009C000F900413FFA0079084001CC077A08CD3D93
:1009D0000A30FD0A7D02031C042D0A30FD01F200DD
:1009E000F3014D08F5004C08F400B7278431730873
:1009F000C9007208C8000030CC01CD01490239306D
:100A000003194802031870157D35203E86008701C2
:100A1000403FF900413FFA0000307A02B730031935
:100A20007902031C1E2D05307B06031D1E2DFB279E
:100A300084311E2DD401D501D201D301701C322D79
:100A4000CA0A0319CB0A00304B02643003194A0268
:100A5000031C322D05307B06031D322D99177010B3
:100A6000CA01CB011430DA0A5A02031C8E2CDA01B7
:100A7000CE2684319B268431692584318E2CF50065
:100A8000750841019E009317131313141318462D74
:100A90000D08F300F2010C08F2070318F30A08002E
:100AA0007308F5007208F40074087504031908004F
:100AB0005330F600F70164000130F6020030F73BD6
:100AC00076087704031D5B2D0130F4020030F53BFE
:100AD000542DF11E772DF1121914F110F01370132B
:100AE000F1137110F01170117113F0100800711CE6
:100AF000F0197C2D701D8D2D1910F01D842D711B8A
:100B0000F1177117F0110800701D8B2DF018F117F7
:100B1000F01470110800F1170800F11CF01B080018
:100B2000701F71180800F01D70190800711FF0186F
:100B30000800191408008D1C0D19B42D0D1A8E1CF7
:100B4000B42D0E1C8D1DB42DF11D7119B42DF11F86
:100B5000F118B42DF01BB42D0B30E50A6502031C0F
:100B6000B52DE501F115B52DE5010D190D1ACA2DAB
:100B70000E18F119CA2D711DF11BCA2DF11CF01BA5
:100B8000CA2D0B30E40A6402031CCB2DE401F111E1
:100B90007115CB2DE401F11D7119012EDC010D0C35
:100BA000890C0139F2000D0E013909077204DC00CD
:100BB0000339031DE42D0630E30A6302031CE62D0E
:100BC000E301F1141910E62DE301F110DB010E0829
:100BD0000139F200F235F235F2350E0C0139090710
:100BE00009077204DB000C39031DFF2D0630E20AF1
:100BF0006202031C012EE201F0171910012EE2011E
:100C0000F0138D19242ED60A0319D70A0030570283
:100C10000B30031956020330031C172E5702E9301C
:100C2000031956020318162E71162B2E0330570285
:100C3000E93003195602031C2B2EE930D60003308D
:100C4000D700701719102B2ED601D7017013711E03
:100C50002B2EF1167112F11D7119302EF01E852EFA
:100C600016118D18F11D422E0B30E10A6102031C92
:100C7000432EE101F11171149913FC01FC0AE80102
:100C8000E80A432EE1010E1C562E8E1CF11D542E37
:100C90000B30E00A6002031C622EE001F11199138F
:100CA000711F622E7113622EE001622E8E1CF11DE7
:100CB000542E0B30E00A6002031C622EE001F11199
:100CC000991371148E1C782E0E1C711D762E0B300C
:100CD000DF0A5F02031C0800DF0171111913711B89
:100CE0007113701E08007012F1160800DF01080071
:100CF0000E1C711D762E0B30DF0A5F02031C0800EC
:100D0000DF0171117114191308008E18912E0B3028
:100D1000DD01DE0A5E02031C08000B30DE00161146
:100D200008000B30DE01DD0A5D02031C08000B30F9
:100D3000DD0016150800F01DAA2EEA2784311930AF
:100D400003195002031CA82E0430D001D1019A06C9
:100D5000DC278431701DAF2E1A15DC278431711FFA
:100D6000B92EEA278431193003195002031C0800F8
:100D7000F02FF01CBD2E1A150800F11CF01BC42E1C
:100D8000701BC42E711CCC2EEA278431033003194A
:100D90005002031C0800F02F1A110800F119711DF0
:100DA0000C2FF11DFA2EE801E80AE62E1913023085
:100DB000E42E99110330E42E18160430E42E99170E
:100DC000F5278431E42E0530FC000C2F7C08013A15
:100DD0000319D62E033A0319D92E013A0319DC2E32
:100DE000073A0319DF2E013A03190C2F033A0319AE
:100DF000E32E0C2FFC01FC0A042F99130230022F62
:100E000018120330E8000C2F6808013A0319FD2E70
:100E1000033A0319002F0C2F711D382FE601E60A43
:100E2000242F99130230E700080018120330E7005E
:100E3000080099150430E70008001917F527E700A6
:100E400008000530E70008006708013A0319112F70
:100E5000033A0319152F013A0319192F073A0319F9
:100E60001D2F013A03194B2F033A0319212F4B2F42
:100E7000E701E70A432F19130230E6000800991131
:100E80000330E60008006608013A03193B2F033AD5
:100E900003193F2F4B2F0800423040019F00F030D4
:100EA0009D0060309C001D08D900D8011C08D804A2
:100EB0004E018C12903040019E000800A927843119
:100EC000892784317E278431672784314C2F420162
:100ED0008E018F0190019101920193018D014101D9
:100EE0009E019B01940102309500960197019A01A1
:100EF00099011F3098008430930008001030510190
:100F00008D008F01910105309300920110180800A7
:100F1000862F40019A019901960197019801950148
:100F2000C9309100FF3092008730930094017E0118
:100F3000D901CE01C301E4010130B800DA01E501B5
:100F4000C401B901CF01E601BA01C501D001DB013D
:100F500008005D304F0196008030970047309800C0
:100F60007F30990037309A00DF309B000800F6018F
:100F7000F701720873040319D72FF801F80AF31B5D
:100F8000C42FF235F30DBE2FF635F70D7308750239
:100F9000031DCC2F72087402031CD32F7208F402B5
:100FA0007308F53B7614F336F20CF80BC42F770870
:100FB000F3007608F2000800F1117111F012E70158
:100FC000E70AE601E60AFC01FC0AE801E80AFB017F
:100FD000FB0A0800D00A0319D10A003051020800A8
:100FE0000430D001D1019A0608000630D401D501A1
:100FF000D201D301080099137014CA01CB01080073
:020000040001F9
:0A000E009C3FFF3F9F0FFF0FFF3FD5
:00000001FF
