:080000008031022884315D2CDF
:1008AE00640080010131890B582C00340130FB00AB
:1008BE00FC00E600E700E8002030F001F101FD0148
:1008CE008400003085004630843157248431400145
:1008DE00702CF201F20AF301472584314001CC015C
:1008EE00CD01FD015E278431D401D501D201D301A2
:1008FE007010CA01CB01F1121914DE01640005302B
:10090E007B06031D9B2C0030362584317308400175
:10091E00CF007208CE0002304F02B93003194E02DA
:10092E00031C9B2CFB278431F201F20AF3014725AD
:10093E0084314E018C1E852C4C27843192258431B6
:10094E0005307C060319AF2C05306706031D112DEB
:10095E00D40A0319D50A0030550264300319540223
:10096E00031CC82CD401D501D20A0319D30A0030B6
:10097E0053024B3003195202031CC82CD201D3016F
:10098E00F0150030362584317D35203E86008701F6
:10099E007208C03F7308C13F7D35203E8600403F40
:1009AE00F900413FFA0079084001CC077A08CD3DA5
:1009BE000A30FD0A7D02031CFB2C0A30FD01F200F9
:1009CE00F3014D08F5004C08F400B7278431730885
:1009DE00C9007208C8000030CC01CD014902E130D7
:1009EE0003194802031870157D35203E86008701D5
:1009FE00403FF900413FFA0002307A02B930031944
:100A0E007902031C152D05307B06031D152DFB27C2
:100A1E008431152DD401D501D201D301701C292D9D
:100A2E00CA0A0319CB0A00304B02643003194A027A
:100A3E00031C292D05307B06031D292D99177010D7
:100A4E00CA01CB011430DA0A5A02031C852CDA01D2
:100A5E00D12684319E26843160258431852CF50083
:100A6E00750841019E0093171313131413183D2D8F
:100A7E000D08F300F2010C08F2070318F30A080040
:100A8E007308F5007208F400740875040319080061
:100A9E005330F600F70164000130F6020030F73BE8
:100AAE0076087704031D522D0130F4020030F53B19
:100ABE004B2DF11E6E2DF1121914F110F01370134F
:100ACE00F1137110F01170117113F0100800711CF8
:100ADE00F019732D701D842D1910F01D7B2D711BB7
:100AEE00F1177117F0110800701D822DF018F11713
:100AFE00F01470110800F1170800F11CF01B08002B
:100B0E00701F71180800F01D70190800711FF01881
:100B1E000800191408008D1C0D19AB2D0D1A8E1C12
:100B2E00AB2D0E1C8D1DAB2DF11D7119AB2DF11FB3
:100B3E00F118AB2DF01BAB2D0B30E50A6502031C33
:100B4E00AC2DE501F115AC2DE5018D1C0D1DC32D50
:100B5E000D1E0E1CC32DF11D7119C32DF11FF118A1
:100B6E00C32DF01BC32D0B30E40A6402031CC42DED
:100B7E00E401F1117115C42DE401F11D7119FA2D65
:100B8E00DC010D0C890C0139F2000D0E013909073B
:100B9E007204DC000339031DDD2D0630E30A630207
:100BAE00031CDF2DE301F1141910DF2DE301F11009
:100BBE00DB010E080139F200F235F235F2350E0C7A
:100BCE000139090709077204DB000C39031DF82DE2
:100BDE000630E20A6202031CFA2DE201F017191028
:100BEE00FA2DE201F0138D191D2ED60A0319D70A1C
:100BFE00003057020B30031956020330031C102E1F
:100C0E005702E9300319560203180F2E7116242EBF
:100C1E0003305702E93003195602031C242EE93023
:100C2E00D6000330D70070171910242ED601D70125
:100C3E007013711E242EF1167112F11D7119292EC9
:100C4E00F01E882E16118D1C2E2EF119312E8D1898
:100C5E00711D452E0B30E10A6102031C462EE10187
:100C6E00F1117111711499131913FC01FC0AE801A9
:100C7E00E80AE701E70AE601E60A462EE1010E1C44
:100C8E00592E8E1CF11D572E0B30E00A6002031CEC
:100C9E00652EE001F1119913711F652E7113652EEA
:100CAE00E001652E8E1CF11D572E0B30E00A6002FE
:100CBE00031C652EE001F111991371148E1C7B2E0D
:100CCE000E1C711D792E0B30DF0A5F02031C08000B
:100CDE00DF0171111913711B7113701E0800701250
:100CEE00F1160800DF0108000E1C711D792E0B3065
:100CFE00DF0A5F02031C0800DF0171117114191362
:100D0E0008008E18942E0B30DD01DE0A5E02031CE5
:100D1E0008000B30DE00161108000B30DE01DD0A74
:100D2E005D02031C08000B30DD0016150800F01DD7
:100D3E00AD2EEA278431193003195002031CAB2E55
:100D4E000430D001D1019A06DC278431701DB22EF9
:100D5E001A15DC278431711FBC2EEA278431193015
:100D6E0003195002031C0800F62FF01CC02E1A1592
:100D7E000800F11CF01BC72E701BC72E711CCF2E46
:100D8E00EA278431033003195002031C0800F62FA2
:100D9E001A110800F11DFA2EE801E80AE62E1913C1
:100DAE000230E42E99110330E42E18160430E42E8E
:100DBE009917F0278431E42E0530FC000C2F7C08A7
:100DCE00013A0319D62E033A0319D92E013A031903
:100DDE00DC2E073A0319DF2E013A03190C2F033AC2
:100DEE000319E32E0C2FFC01FC0A042F9913023079
:100DFE00022F18120330E8000C2F6808013A03196D
:100E0E00FD2E033A0319002F0C2F711D382FE6010A
:100E1E00E60A242F99130230E70008001812033057
:100E2E00E700080099150430E70008001917F027AD
:100E3E00E70008000530E70008006708013A0319CB
:100E4E00112F033A0319152F013A0319192F073AD7
:100E5E0003191D2F013A03194B2F033A0319212FA2
:100E6E004B2FE701E70A432F19130230E600080063
:100E7E0099110330E60008006608013A03193B2F6A
:100E8E00033A03193F2F4B2F0800423040019F00B9
:100E9E00F0309D0060309C001D08D900D8011C0860
:100EAE00D8044E018C12903040019E000800A927F4
:100EBE008431892784317E278431672784314C2FF2
:100ECE0042018E018F0190019101920193018D01DA
:100EDE0041019E019B0194010230950096019701FC
:100EEE009A0199011F309800843093000800103049
:100EFE0051018D008F019101053093009201101860
:100F0E000800862F40019A019901960197019801D8
:100F1E009501C9309100FF30920087309300940103
:100F2E007E01D901CE01C301E4010130B800DA011E
:100F3E00E501C401B901CF01E601BA01C501D00135
:100F4E00DB0108005D304F0196008030970047307E
:100F5E0098007F30990037309A00DF309B000800F0
:100F6E00F601F701720873040319D72FF801F80A76
:100F7E00F31BC42FF235F30DBE2FF635F70D7308A4
:100F8E007502031DCC2F72087402031CD32F720836
:100F9E00F4027308F53B7614F336F20CF80BC42FFB
:100FAE007708F3007608F2000800F1117111F012C3
:100FBE00E701E70AE601E60AFC01FC0AE801E80A95
:100FCE00FB01FB0A0800D00A0319D10A00305102B6
:100FDE0008000630D401D501D201D3010800043037
:100FEE00D001D1019A06080099137014CA01CB01E1
:020FFE000800E9
:020000040001F9
:0A000E009C3FFF3F9F0FFF0FFF3FD5
:00000001FF
