:08000000803102288431182C24
:1004C000640080010131890B612A0034FE001200B2
:1004D0001E00FE0B672A003401340134013401345C
:1004E00001340134013401347408F6007308F50056
:1004F00075087604031908005330F700F80164000A
:100500000130F7020030F83B77087804031D7F2A9A
:100510000130F5020030F63B782AC12282319F2259
:10052000823196228231CF228231E62A6030510117
:100530008D008F0191010630930092010800400167
:100540009A019901083096009701980107309500AB
:10055000F3309100FC3092008030930094017E01D2
:10056000D901CE01C301E4010330B800DA01E5018D
:10057000C401B901CF01E601BA01C501D001DB0117
:1005800008005D304F01960080309700473098009A
:100590007F30990037309A00DF309B00080042011D
:1005A0008E018F0190019101920193018D01410112
:1005B0009E019B01940102309500960197019A01DA
:1005C00099011F30980084309300080042304001A8
:1005D0009F00F0309D0060309C001D08CD00CC01D4
:1005E0001C08CC044E018C12903040019E00080083
:1005F000F11F162BC801C80A082B19140430062B4A
:1006000017140630062B053013248231C900282B1D
:100610004908013A0319FD2A053A0319002B013A4A
:100620000319282B033A0319032B282BC901C90AE4
:10063000202B171002301E2B19100330C800282B56
:100640004808013A0319192B033A03191C2B282BCC
:10065000711F462BCA01CA0A382B98150430362B55
:1006600097140630342B053013248231CB00582BDD
:100670004B08013A03192D2B053A0319302B013A87
:100680000319582B033A0319332B582BCB01CB0AF0
:10069000502B971002304E2B98110330CA00582B64
:1006A0004A08013A0319492B033A03194C2B582BDA
:1006B000F11E822BC701C70A6E2B191302306C2B57
:1006C000991003306C2B191504306C2B99170630D8
:1006D0006A2B053013248231FD00942B7D08013AEA
:1006E00003195D2B033A0319602B013A0319632B9D
:1006F000073A0319662B013A0319942B033A03199D
:10070000692B942BFD01FD0A8C2B991302308A2B47
:1007100019110330C700942B4708013A0319852BA0
:10072000033A0319882B942B711EBE2BC601C60AEF
:10073000AA2B99130230A82B19110330A82B991456
:100740000430A82B19170630A62B0530132482314C
:10075000FC00D02B7C08013A0319992B033A0319AA
:100760009C2B013A03199F2B073A0319A22B013A3C
:100770000319D02B033A0319A52BD02BFC01FC0A3B
:10078000C82B19130230C62B99100330C600D02B8A
:100790004608013A0319C12B033A0319C42BD02B85
:1007A000F11CF92BC501C50A4408013A0319E82BCD
:1007B000033A0319EC2B013A0319F02B073A0319FA
:1007C000F42B013A03190C2C033A0319F72B0C2CC8
:1007D00099120230C400080099110330C4000800C7
:1007E00018160430C4000800191606300D2C053008
:1007F0000D2CC401C40A042C19120230C5000800D3
:1008000018120330C50008004508013A0319FC2BF3
:10081000033A0319002C0C2C0800B001B101AE0101
:10082000AF01C4000800B001B101AE01AF01080082
:100830000130FC00FD006C308400823085004430C3
:1008400086000030870008308231662284312030F3
:10085000F001F101F2018400003085002430823182
:1008600060228431A030840000308500283082313D
:100870006022843140013C2C82318D228431A801D8
:10088000A901B401B001B101AE01AF017011F010C6
:100890007010A601A701A401A501A201A301721075
:1008A00018154E018C1E512C400110188C1E642C02
:1008B0001019642C0B30B30A3302031C512C0F3077
:1008C000B300C62784316B2C0B30B20A3202031CF2
:1008D000512C0F30B200B301B20164000530400169
:1008E0004406031D7E2C003090258431B3278431CB
:1008F00003192A02031C7E2CCC27843105307D0687
:10090000031D8E2C003090258431B32784310319C8
:100910002A02031C9C2CD12784319C2C05307C0698
:10092000031D9C2C003090258431B327843103199A
:100930002A02031C9C2CD627F301F30AF40182310E
:10094000742284314E018C1E6D2C8231E62284315A
:10095000CE25843105304B060319BE2C05304906DF
:100960000319BE2C05307D060319BE2C05307C060C
:100970000319BE2C05304406031D3E2DB00A031991
:10098000B10A00303102643003193002031CE72C35
:100990000530B001B1017D060319D62C05307C0667
:1009A0000319D62C05304406031DE42CAE0A0319A6
:1009B000AF0A00302F024B3003192E02031CE72C24
:1009C000AE01AF017016E72C7016B001B101003016
:1009D0009025843140013435A03E8600870173089C
:1009E000C03F7408C13F3435A03E8600403FFA0046
:1009F000413FFB007A08A8077B08A93D0A30B40AEA
:100A00003402031C1A2D0A30B401F300F401290842
:100A1000F6002808F500DB2784317408A10073086C
:100A2000A0000030A801A90121023B3003192002D7
:100A30000318F0153435A03E86008701403FFA00C8
:100A4000413FFB0000307B02B73003197A02031CE0
:100A5000412D05304406031D302DCC278431412D16
:100A600005307D06031D372DD1278431412D0530FA
:100A70007C06031D412DD6278431412D843113245A
:100A80008431701D572DA60A0319A70A00302702CA
:100A9000643003192602031C822D05304406031915
:100AA000F11C822D19167011A601A701822D701C50
:100AB0006D2DA40A0319A50A00302502643003191C
:100AC0002402031C822D05307C060319711E822D21
:100AD00019177010A401A501822DF01C822DA20A05
:100AE0000319A30A00302302643003192202031CF5
:100AF000822D05307D060319F11E822D9917F01005
:100B0000A201A3011430B50A3502031C6D2CB501F6
:100B10008231F822843162278431A12584316D2C01
:100B2000F600760841019E0093171313131413184F
:100B3000972D0D08F400F3010C08F3070318F40ACD
:100B40000800721CAD2D72101815F111F2117111FF
:100B50007012F0117211F2100800711D701AB22D8E
:100B6000F01DC32D1811701EBA2D7219F2157215D1
:100B700070120800F01DC12DF218F215F214F011D8
:100B80000800F2150800F11D71190800701EF01917
:100B90000800721DF218080018150800F11F711BDB
:100BA000132EF11E711A132EF118132EB6010D0C0F
:100BB000F300F30C730C0139F4000D0E890C890C51
:100BC0000139F500F535F535F5350D0E890C01398E
:100BD000F600F635F6350D0E013909077604750471
:100BE0007404B6000F3A0319052E0E3036060319A9
:100BF000052E0D3036060319052E0B303606031967
:100C0000052E07303606031D082E101D9018112ED4
:100C10000630BF0A3F02031C132EBF01F115181145
:100C2000132EBF01F1110C1A1D2E0B30BE0A3E020D
:100C3000031C1F2EBE0172141F2EBE0172108D1DCB
:100C40000D1E482E8D1A0D1F482E10199018482E73
:100C500010180D19482EF11F711B482EF11E711A24
:100C6000482EF11CF219482E8D1F0C1E482EF1192A
:100C7000482EF01F4C2E0B30C30A4302031C4C2E8F
:100C8000C301F1177113F1127112F110F0134C2E10
:100C9000C3018D1D4C2EF0178D1D0D1E722E8D1A49
:100CA0000D1F722E10199018722E10180D19722E19
:100CB000F11F711B722EF11E711A722EF11CF219A6
:100CC000722E8D1B0C1E722EF119722E0B30B80A6B
:100CD0003802031C732EB801F1137113F112711253
:100CE000F114732EB8010D1E8D1D992E8D1A0D1F36
:100CF000992E9018101C992E0D1DF11B992E711F05
:100D0000F11A992E711EF118992EF21D0C1E992EB2
:100D1000F119992E711C9D2E0B30C20A4202031C40
:100D20009D2EC201F1137117F1127112F1107110A1
:100D30009D2EC2010D1E9D2E71148D1E8D1DC42E63
:100D40000D1A0D1FC42E1019101CC42E8C1E0D1947
:100D5000C42EF11F711BC42EF11E711AC42EF11C7A
:100D6000F219C42E0C1AF119C42E701FC82E0B30A4
:100D7000C10A4102031CC82EC101F1137113F116FF
:100D80007112F1107013C82EC1018D1EC82E70177C
:100D90000D1F8D1DEB2E0D1A8D1EEB2E10198C1EA6
:100DA000EB2E0D1DF11BEB2E711FF11AEB2E711E98
:100DB000F118EB2EF21D0C1EEB2EF119EB2EF01E8E
:100DC000EF2E0B30C00A4002031CEF2EC001C627D5
:100DD0008431F012EF2EC0010D1FEF2EF016F11F1F
:100DE000711BF72EF11E711AF72EF11C08009810D6
:100DF0000D19FD2E101D90180C2F0630BD0A3D0256
:100E0000031C0D2FBD01F1137113F1127112F110BA
:100E10007115992784310D2FBD01101DF11F1C2F55
:100E20000630BC0A3C02031C1D2FBC01F113171035
:100E3000721D1D2F72111D2FBC01901C711F2C2FB4
:100E40000630BB0A3B02031C2D2FBB017113971008
:100E5000721D2D2F72112D2FBB01101CF11E3E2F64
:100E60000630BA0A3A02031C3F2FBA01F112991355
:100E700072197211F21C3F2FF2103F2FBA01101895
:100E80008C1A522F711E522F0630B90A3902031CD8
:100E9000532FB9017112191372197211F21C532FC9
:100EA000F210532FB9018D1FF11C602F0B30B70AC0
:100EB0003702031C0800B701F110F11719120800DE
:100EC000B7010800701E742FBB2784311930031935
:100ED0002C02031C6F2F0430AC01AD019606F113F8
:100EE000AE27843199278431F01D7C2F1615F1131C
:100EF000AE27843199278431721D862FBB27843118
:100F0000193003192C02031C0800C12FF21C8A2F70
:100F100016150800F1198E2F711D962FBB278431ED
:100F2000033003192C02031C0800C12F16111815D9
:100F30000800CB01CB0ACA01CA0AC901C90AC80103
:100F4000C80AC701C70AFD01FD0AC601C60AFC019D
:100F5000FC0AC501C50AC401C40A08007113F112D4
:100F60007112F110080074084001AB007308AA0068
:100F700000302B02B734AC0A0319AD0A00302D0241
:100F800008000430AC01AD0196060800F11371139E
:100F9000F1127116F110080019127015A601A701BF
:100FA00008009913F014A201A3010800191370148A
:100FB000A401A5010800F701F801730874040319DE
:100FC000FB2FF901F90AF41BE82FF335F40DE22F9A
:100FD000F735F80D74087602031DF02F73087502BB
:100FE000031CF72F7308F5027408F63B7714F436E8
:100FF000F30CF90BE82F7808F4007708F3000800E9
:020000040001F9
:0A000E00EC3F3E3D9F0FFF0FFF3F48
:00000001FF
