:020000040000FA
:08000000803102288731DF2F57
:10083C00013401340134013401346400800101318C
:10084C00890B242C0034103051018D008F01910143
:10085C0005309300920110180800312C5D304F01C7
:10086C00960080309700473098007F3099003730E1
:10087C009A00DF309B0008008431342484318431A9
:10088C00A424843184312924843184317424843126
:10089C00843162240800F500750841019E0093170D
:1008AC00131313141318582C0D08F300F2010C0831
:1008BC00F2070318F30A0800423040019F00F030A1
:1008CC009D0060309C001D08D900D8011C08D8047C
:1008DC004E018C12903040019E00080042018E01A6
:1008EC008F0190019101920193018D0141019E01B3
:1008FC009B01940102309500960197019A01990190
:10090C001F3098008430930008007308F5007208BB
:10091C00F40074087504031908005330F600F7014D
:10092C0064000130F6020030F73B76087704031DB3
:10093C00962C0130F4020030F53B8F2C40019A01CB
:10094C0099019601970198019501C9309100FF30EA
:10095C0092008730930094017E01D901CE01C3012E
:10096C00E4010130B800DA01E501C401B901CF019D
:10097C00E601BA01C501D001DB010800F601F7015F
:10098C00720873040319E42CF801F80AF31BD12C38
:10099C00F235F30DCB2CF635F70D73087502031DEC
:1009AC00D92C72087402031CE02C7208F402730830
:1009BC00F53B7614F336F20CF80BD12C7708F300D8
:1009CC007608F2000800F11EF72CF1121914F11040
:1009DC00F0137013F1137110F01170117113F010FA
:1009EC000800711CF019FC2C701D0D2D1910F01D38
:1009FC00042D711BF1177117F0110800701D0B2DD0
:100A0C00F018F117F01470110800F1170800F11824
:100A1C000800F01B0800701B080071180800F01982
:100A2C00080070190800711B0800F0180800191450
:100A3C000800F01D3C2DD00A0319D10A00305102D8
:100A4C00193003195002031C2F2DD001D101043091
:100A5C009A06F1117111F012E701E70AE601E60AB4
:100A6C00FC01FC0AE801E80AFB01FB0A701D4C2D95
:100A7C001A15F1117111F012E701E70AE601E60A05
:100A8C00FC01FC0AE801E80AFB01FB0A711F5D2D61
:100A9C00D00A0319D10A003051021930031950023F
:100AAC00031C0800D001D10104309A060800F01C88
:100ABC00612D1A150800F11CF01B682D701B682D98
:100ACC00711C772DD00A0319D10A00305102033062
:100ADC0003195002031C0800D001D10104309A06FE
:100AEC0008001A110800F11DA52DE801E80A912D46
:100AFC00191302308F2D991103308F2D18160430D5
:100B0C008F2D9917D401D501D201D30106308F2D29
:100B1C000530FC00B72D7C08013A03197E2D033AF1
:100B2C000319812D013A0319842D073A0319872DD6
:100B3C00013A0319B72D033A03198E2DB72DFC0179
:100B4C00FC0AAF2D99130230AD2D18120330E800BA
:100B5C00B72D6808013A0319A82D033A0319AB2DD8
:100B6C00B72D711DE72DE601E60AD32D991302303E
:100B7C00E700080018120330E7000800991504304C
:100B8C00E70008001917D401D501D201D3010630B2
:100B9C00E70008000530E70008006708013A031970
:100BAC00BC2D033A0319C02D013A0319C42D073A81
:100BBC000319C82D013A0319FA2D033A0319D02D44
:100BCC00FA2DE701E70AF22D19130230E6000800AE
:100BDC0099110330E60008006608013A0319EA2D62
:100BEC00033A0319EE2DFA2D0800F201F20AF30173
:100BFC0084318B2485314001CC01CD01FD01843140
:100C0C0042248531D401D501D201D3017010CA011F
:100C1C00CB01F1121914DE01640005307B06031DB3
:100C2C002B2E003084315124853173084001CF00C4
:100C3C007208CE0000304F02B73003194E02031C6D
:100C4C002B2E99137014CA01CB01F201F20AF30195
:100C5C0084318B2485314E018C1E122E84316224FA
:100C6C0085318631D126853105307C060319422E1B
:100C7C0005306706031DA92ED40A0319D50A0030C6
:100C8C005502643003195402031C5B2ED401D501A8
:100C9C00D20A0319D30A003053024B300319520203
:100CAC00031C5B2ED201D301F0150030843151248A
:100CBC0085317D35203E860087017208C03F730860
:100CCC00C13F7D35203E86008701403FF900413F02
:100CDC00FA0079084001CC077A08CD3DFD0A0A30AC
:100CEC007D02031C912EFD010A30F200F3014D0828
:100CFC00F5004C08F4008431C42485317308C90014
:100D0C007208C800CC01CD010030490239300319FA
:100D1C004802031870157D35203E86008701403F40
:100D2C00F900413FFA0000307A02B730031979021A
:100D3C00031CAD2E05307B06031DAD2E99137014CC
:100D4C00CA01CB01AD2ED401D501D201D301701C47
:100D5C00C12ECA0A0319CB0A00304B0264300319A6
:100D6C004A02031CC12E05307B06031DC12E9917A8
:100D7C007010CA01CB01DA0A14305A02031C122E6D
:100D8C00DA0185317925853185311F25853184310D
:100D9C00E9248531122E8D1C0D19EA2E0D1A8E1C8C
:100DAC00EA2E0E1C8D1DEA2EF11D7119EA2EF11F73
:100DBC00F118EA2EF01BEA2EE50A0B306502031C33
:100DCC00EB2EE501F115EB2EE5018D1C0D1D022F0F
:100DDC000D1E0E1C022FF11D7119022FF11FF1189F
:100DEC00022FF01B022FE40A0B306402031C032FAA
:100DFC00E401F1117115032FE401F11D71193B2F61
:100E0C00DC010D0C890C0139F2000D0E01390907BA
:100E1C007204DC005C080339031D1D2FE30A063045
:100E2C006302031C1F2FE301F11419101F2FE301A0
:100E3C00F110DB010E080139F200F235F235F23512
:100E4C000E0C0139090709077204DB005B080C3929
:100E5C00031D392FE20A06306202031C3B2FE2010C
:100E6C00F01719103B2FE201F0138D195E2FD60AE3
:100E7C000319D70A003057020B3003195602031C12
:100E8C00502F03305702E930031956020318502F24
:100E9C007116652F03305702E93003195602031CF3
:100EAC00652FE930D6000330D70070171910652F65
:100EBC00D601D7017013711E652FF1167112F11D39
:100ECC0071196A2FF01EC92F16118D1C6F2FF11975
:100EDC00722F8D18711D862FE10A0B306102031CD5
:100EEC00872FE101F1117111711499131913FC0180
:100EFC00FC0AE801E80AE701E70AE601E60A872F9F
:100F0C00E1010E1C9A2F8E1CF11D982FE00A0B305C
:100F1C006002031CA62FE001F1119913711FA62F7B
:100F2C007113A62FE001A62F8E1CF11D982FE00A3D
:100F3C000B306002031CA62FE001F1119913711400
:100F4C008E1CBC2F0E1C711DBA2FDF0A0B305F02DA
:100F5C00031C0800DF0171111913711B7113701E32
:100F6C0008007012F1160800DF0108000E1C711D3C
:100F7C00BA2FDF0A0B305F02031C0800DF0171116E
:100F8C007114191308008E18D52FDD01DE0A0B30F1
:100F9C005E02031C08000B30DE0016110800DE0197
:100FAC00DD0A0B305D02031C08000B30DD0016154A
:100FBC00080084311E248731FB0084311F248731C3
:100FCC00FC00843120248731E600843121248731D0
:100FDC00E700843122248731E800F001F101FD01A2
:100FEC0020308400003085004630843123244001B9
:040FFC008531FB2D13
:020000040001F9
:0A000E009C3FFF3F9F0FFF0FFF3FD5
:00000001FF
