:08000000803102288431152C27
:1004BA00640080010131890B5E2A0034FE001200BB
:1004CA001E00FE0B642A0034013401340134013465
:1004DA0001340134013401347408F6007308F5005C
:1004EA0075087604031908005330F700F801640010
:1004FA000130F7020030F83B77087804031D7C2AA4
:10050A000130F5020030F63B752ABE2282319C2268
:10051A00823193228231CC228231E32A6030510126
:10052A008D008F019101063093009201080040016D
:10053A009A019901083096009701980107309500B1
:10054A00F3309100FC3092008030930094017E01D8
:10055A00D901CE01C301E4010330B800DA01E50193
:10056A00C401B901CF01E601BA01C501D001DB011D
:10057A0008005D304F0196008030970047309800A0
:10058A007F30990037309A00DF309B000800420123
:10059A008E018F0190019101920193018D01410118
:1005AA009E019B01940102309500960197019A01E0
:1005BA0099011F30980084309300080042304001AE
:1005CA009F00F0309D0060309C001D08CD00CC01DA
:1005DA001C08CC044E018C12903040019E00080089
:1005EA00F11F132BC801C80A052B19140430032B59
:1005FA0017140630032B053010248231C900252B2D
:10060A004908013A0319FA2A053A0319FD2A013A57
:10061A000319252B033A0319002B252BC901C90AF3
:10062A001D2B171002301B2B19100330C800252B65
:10063A004808013A0319162B033A0319192B252BDB
:10064A00711F432BCA01CA0A352B98150430332B64
:10065A0097140630312B053010248231CB00552BEC
:10066A004B08013A03192A2B053A03192D2B013A93
:10067A000319552B033A0319302B552BCB01CB0AFF
:10068A004D2B971002304B2B98110330CA00552B73
:10069A004A08013A0319462B033A0319492B552BE9
:1006AA00F11E7F2BC701C70A6B2B19130230692B66
:1006BA0099100330692B19150430692B99170630E4
:1006CA00672B053010248231FD00912B7D08013AF9
:1006DA0003195A2B033A03195D2B013A0319602BAC
:1006EA00073A0319632B013A0319912B033A0319A9
:1006FA00662B912BFD01FD0A892B99130230872B5A
:10070A0019110330C700912B4708013A0319822BAC
:10071A00033A0319852B912B711EBB2BC601C60AFE
:10072A00A72B99130230A52B19110330A52B991465
:10073A000430A52B19170630A32B0530102482315B
:10074A00FC00CD2B7C08013A0319962B033A0319B6
:10075A00992B013A03199C2B073A03199F2B013A4B
:10076A000319CD2B033A0319A22BCD2BFC01FC0A4A
:10077A00C52B19130230C32B99100330C600CD2B99
:10078A004608013A0319BE2B033A0319C12BCD2B94
:10079A00F11CF62BC501C50A4408013A0319E52BD9
:1007AA00033A0319E92B013A0319ED2B073A031906
:1007BA00F12B013A0319092C033A0319F42B092CDA
:1007CA0099120230C400080099110330C4000800CD
:1007DA0018160430C4000800191606300A2C053011
:1007EA000A2CC401C40A012C19120230C5000800DF
:1007FA0018120330C50008004508013A0319F92BFD
:10080A00033A0319FD2B092C0800B001B101AE010E
:10081A00AF01C4000800B001B101AE01AF01080088
:10082A000130FC00FD0069308400823085004430CC
:10083A0086000030870008308231632284312030FC
:10084A00F001F101F2018400003085002430823188
:10085A005D228431A0308400003085002830823146
:10086A005D2284314001392C82318A228431A801E7
:10087A00A901B401B001B101AE01AF017011F010CC
:10088A007010A601A701A401A501A201A30172107B
:10089A0018154E018C1E4E2C400110188C1E612C0E
:1008AA001019612C0B30B30A3302031C4E2C0F3083
:1008BA00B300C6278431682C0B30B20A3202031CFB
:1008CA004E2C0F30B200B301B20164000530400172
:1008DA004406031D7B2C00308D258431B3278431D7
:1008EA0003192A02031C7B2CCC27843105307D0690
:1008FA00031D8B2C00308D258431B32784310319D5
:10090A002A02031C992CD1278431992C05307C06A4
:10091A00031D992C00308D258431B32784310319A6
:10092A002A02031C992CD627F301F30AF401823117
:10093A00712284314E018C1E6A2C8231E322843169
:10094A00CE25843105304B060319BB2C05304906E8
:10095A000319BB2C05307D060319BB2C05307C0618
:10096A000319BB2C05304406031D3B2DB00A03199D
:10097A00B10A00303102643003193002031CE42C3E
:10098A000530B001B1017D060319D32C05307C0670
:10099A000319D32C05304406031DE12CAE0A0319B2
:1009AA00AF0A00302F024B3003192E02031CE42C2D
:1009BA00AE01AF017016E42C7016B001B10100301F
:1009CA008D25843140013435A03E860087017308A5
:1009DA00C03F7408C13F3435A03E8600403FFA004C
:1009EA00413FFB007A08A8077B08A93D0A30B40AF0
:1009FA003402031C172D0A30B401F300F40129084C
:100A0A00F6002808F500DB2784317408A100730872
:100A1A00A0000030A801A9012102E930031920022F
:100A2A000318F0153435A03E86008701403FFA00CE
:100A3A00413FFB0002307B02B93003197A02031CE2
:100A4A003E2D05304406031D2D2DCC2784313E2D25
:100A5A0005307D06031D342DD12784313E2D053006
:100A6A007C06031D3E2DD62784313E2D8431102469
:100A7A008431701D542DA60A0319A70A00302702D3
:100A8A00643003192602031C7F2D0530440603191E
:100A9A00F11C7F2D19167011A601A7017F2D701C5C
:100AAA006A2DA40A0319A50A003025026430031925
:100ABA002402031C7F2D05307C060319711E7F2D2D
:100ACA0019177010A401A5017F2DF01C7F2DA20A11
:100ADA000319A30A00302302643003192202031CFB
:100AEA007F2D05307D060319F11E7F2D9917F01011
:100AFA00A201A3011430B50A3502031C6A2CB50100
:100B0A008231F522843162278431A12584316A2C0D
:100B1A00F600760841019E0093171313131441013E
:100B2A00131C992D6400942D0D08F400F3010C0890
:100B3A00F3070318F40A0800721CAD2D7210181579
:100B4A00F111F21171117012F0117211F210080004
:100B5A00711D701AB22DF01DC32D1811701EBA2DF9
:100B6A007219F215721570120800F01DC12DF218D3
:100B7A00F215F214F0110800F2150800F11D7119AE
:100B8A000800701EF0190800721DF21808001815E6
:100B9A000800F11F711B132EF11E711A132EF11882
:100BAA00132EB6010D0CF300F30C730C0139F4008B
:100BBA000D0E890C890C0139F500F535F535F53539
:100BCA000D0E890C0139F600F635F6350D0E013990
:100BDA000907760475047404B6000F3A0319052E42
:100BEA000E3036060319052E0D3036060319052E6A
:100BFA000B3036060319052E07303606031D082E5C
:100C0A00101D9018112E0630BF0A3F02031C132E26
:100C1A00BF01F1151811132EBF01F1110C1A1D2E67
:100C2A000B30BE0A3E02031C1F2EBE0172141F2E79
:100C3A00BE0172108D1D0D1E482E8D1A0D1F482ED5
:100C4A0010199018482E10180D19482EF11F711BF3
:100C5A00482EF11E711A482EF11CF219482E8D1FCA
:100C6A000C1E482EF119482EF01F4C2E0B30C30AC9
:100C7A004302031C4C2EC301F1177113F1127112B6
:100C8A00F110F0134C2EC3018D1D4C2EF0178D1D43
:100C9A000D1E722E8D1A0D1F722E10199018722E9B
:100CAA0010180D19722EF11F711B722EF11E711A76
:100CBA00722EF11CF219722E8D1B0C1E722EF11956
:100CCA00722E0B30B80A3802031C732EB801F113C6
:100CDA007113F1127112F114732EB8010D1E8D1DCC
:100CEA00992E8D1A0D1F992E9018101C992E0D1DD4
:100CFA00F11B992E711FF11A992E711EF118992E56
:100D0A00F21D0C1E992EF119992E711C9D2E0B3075
:100D1A00C20A4202031C9D2EC201F1137117F1127D
:100D2A007112F11071109D2EC2010D1E9D2E7114AB
:100D3A008D1E8D1DC42E0D1A0D1FC42E1019101CC8
:100D4A00C42E8C1E0D19C42EF11F711BC42EF11E48
:100D5A00711AC42EF11CF219C42E0C1AF119C42EE0
:100D6A00701FC82E0B30C10A4102031CC82EC101D4
:100D7A00F1137113F1167112F1107013C82EC1011B
:100D8A008D1EC82E70170D1F8D1DEB2E0D1A8D1E70
:100D9A00EB2E10198C1EEB2E0D1DF11BEB2E711F65
:100DAA00F11AEB2E711EF118EB2EF21D0C1EEB2E12
:100DBA00F119EB2EF01EEF2E0B30C00A4002031C75
:100DCA00EF2EC001C6278431F012EF2EC0010D1F8D
:100DDA00EF2EF016F11F711BF72EF11E711AF72E66
:100DEA00F11C080098100D19FD2E101D90180C2FDB
:100DFA000630BD0A3D02031C0D2FBD01F11371130C
:100E0A00F1127112F1107115992784310D2FBD015C
:100E1A00101DF11F1C2F0630BC0A3C02031C1D2F9B
:100E2A00BC01F1131710721D1D2F72111D2FBC0169
:100E3A00901C711F2C2F0630BB0A3B02031C2D2F5E
:100E4A00BB0171139710721D2D2F72112D2FBB012B
:100E5A00101CF11E3E2F0630BA0A3A02031C3F2F1D
:100E6A00BA01F112991372197211F21C3F2FF21082
:100E7A003F2FBA0110188C1A522F711E522F0630AA
:100E8A00B90A3902031C532FB901711219137219C5
:100E9A007211F21C532FF210532FB9018D1FF11C3E
:100EAA00602F0B30B70A3702031C0800B701F11094
:100EBA00F11719120800B7010800701E742FBB271A
:100ECA008431193003192C02031C6F2F0430AC0132
:100EDA00AD019606F113AE27843199278431F01DAE
:100EEA007C2F1615F113AE27843199278431721D90
:100EFA00862FBB278431193003192C02031C0800E2
:100F0A00C12FF21C8A2F16150800F1198E2F711D98
:100F1A00962FBB278431033003192C02031C0800C7
:100F2A00C12F161118150800CB01CB0ACA01CA0A2B
:100F3A00C901C90AC801C80AC701C70AFD01FD0AD1
:100F4A00C601C60AFC01FC0AC501C50AC401C40AD5
:100F5A0008007113F1127112F110080074084001AF
:100F6A00AB007308AA0002302B02B934AC0A031989
:100F7A00AD0A00302D0208000430AC01AD0196061E
:100F8A000800F1137113F1127116F1100800191209
:100F9A007015A601A70108009913F014A201A30174
:100FAA00080019137014A401A5010800F701F8013B
:100FBA00730874040319FB2FF901F90AF41BE82FCB
:100FCA00F335F40DE22FF735F80D74087602031D98
:100FDA00F02F73087502031CF72F7308F5027408C3
:100FEA00F63B7714F436F30CF90BE82F7808F40083
:060FFA007708F300080077
:020000040001F9
:0A000E00EC3FFC3DFF0FFF0FFC3F2D
:00000001FF
