:08000000803102288731E22F54
:100794000134013401340134013464008001013135
:1007A400890BD02B0034F701F80173087404031982
:1007B400F52BF901F90AF41BE22BF335F40DDC2BCC
:1007C400F735F80D74087602031DEA2B73087502D9
:1007D400031CF12B7308F5027408F63B7714F43606
:1007E400F30CF90BE22B7808F4007708F300080007
:1007F400F301F30AF401DD2483314001CC01CD017E
:10080400FC0164278331D401D501D201D3017010D6
:10081400CA01CB0171131914DF01DE016400053034
:100824007D06031D262C0030CC248331740840013E
:10083400CF007308CE0000304F02B73003194E02C8
:10084400031C262CDD278331F301F30AF401DD2494
:1008540083314E018C1E102C52278331282583317D
:1008640005307D0603193E2C05306E0603193E2C17
:1008740005306C06031DA92CD40A0319D50A0030CF
:100884005502643003195402031C5F2C0530D40153
:10089400D5017D06031D5C2CD20A0319D30A00304E
:1008A40053024B3003195202031C5F2CD201D301B3
:1008B400F0155F2CF015D401D5010030CC24833120
:1008C4007C35203E860087017308C03F7408C13F11
:1008D4007C35203E8600403FFA00413FFB007A0809
:1008E4004001CC077B08CD3D0A30FC0A7C02031C86
:1008F400932C0A30FC01F300F4014D08F6004C0877
:10090400F5008331D52383317408C9007308C80006
:100914000030CC01CD0149023930031948020318D3
:1009240070157C35203E86008701403FFA00413F28
:10093400FB0000307B02B73003197A02031CAB2C96
:1009440005307D06031DAB2CDD278331AB2CD82766
:100954008331701CBF2CCA0A0319CB0A00304B0226
:10096400643003194A02031CBF2C05307D06031DA5
:10097400BF2C99177010CA01CB011430DA0A5A023D
:10098400031C102CDA01B22683317F268331F6242E
:100994008331102CF600760841019E00931713133F
:1009A40013141318D32C0D08F400F3010C08F307E7
:1009B4000318F40A08007408F6007308F5007508B3
:1009C4007604031908005330F700F801640001307D
:1009D400F7020030F83B77087804031DE82C013057
:1009E400F5020030F63BE12C711F042D711319142C
:1009F40071117110F0137210F110F0117011F113E4
:100A0400F0100800F11CF019092D701D1A2D191091
:100A1400F01D112DF11B7214F117F0110800701D57
:100A2400182DF0187214F0147011080072140800D4
:100A3400711D71180800F01FF1180800F01D7019DD
:100A44000800F11FF0180800191408008D1C0D1976
:100A5400422D0D1A0E19422D8E180E18422D8D1985
:100A6400711A422DF11D7218422D711D7118422DFB
:100A74000B30E90A6902031C432DE9017116432D69
:100A8400E9018D1C0D195D2D0D1A0E1D5D2D8E189D
:100A94000E185D2D8D19711A5D2DF11D72185D2DC5
:100AA400711D71185D2D0B30E50A6502031C5E2D66
:100AB400E50170175E2DE5010D190D1A742D0E1840
:100AC400711A742DF11D7218742D711D7118742D05
:100AD4000B30E80A6802031C752DE8017112F11548
:100AE400F012752DE8018D1E0E1C8A2D711EF11950
:100AF4008A2D71188A2DF01E8E2D0B30DF0A5F02AD
:100B0400031C8E2DDF017112F115F01270168E2D5B
:100B1400DF018D1E8E2DF016711EF119C42DDC011E
:100B24000D0C890C0139F3000D0E0139090773040A
:100B3400DC000339031DA72D0630E70A6702031CF6
:100B4400A92DE70171151910A92DE7017111DB0118
:100B54000E080139F300F335F335F3350E0C013982
:100B6400090709077304DB000C39031DC22D063085
:100B7400E60A6602031CC42DE60171141910C42D83
:100B8400E60171108D19E72DD60A0319D70A003032
:100B940057020B30031956020330031CDA2D570297
:100BA400E930031956020318D92DF116EE2D03303E
:100BB4005702E93003195602031CEE2DE930D60022
:100BC4000330D700F0171910EE2DD601D701F0131A
:100BD400F11EEE2D7117F112711EF119F32D701F14
:100BE400692E16118D18711E052E0B30E40A64024D
:100BF400031C062EE4017112F1149912EE01EE0A9F
:100C0400ED01ED0A062EE4010E1C192E8E1C711E38
:100C1400172E0B30E30A6302031C252EE301711225
:100C24009912F11F252EF113252EE301252E8E1C7A
:100C3400711E172E0B30E30A6302031C252EE301F9
:100C440071129912F1148E1C3B2E0E1CF11D392EBB
:100C54000B30E20A6202031C472EE201F111191261
:100C6400F11BF113701E472E70127117472EE2010B
:100C7400472E0E1CF11D392E0B30E20A6202031CB2
:100C8400472EE201F111F11419120E1D701F542E9A
:100C94000B30E10A6102031C552EE1017013711639
:100CA4009913552EE101701F08008E185B2E0E1C3F
:100CB4005D2E8D1C672E0B30E00A6002031C0800B9
:100CC400E00170139913F1140800E00108008E1874
:100CD400752E0B30DD01DE0A5E02031C08000B30AA
:100CE400DE00161108000B30DE01DD0A5D02031C74
:100CF40008000B30DD0016150800F01D8E2ECD27E0
:100D04008331193003195002031C8C2E0430D00196
:100D1400D1019A06BD278331701D932E1A15BD2764
:100D24008331F11F9D2ECD278331193003195002D1
:100D3400031C0800D32FF01CA12E1A150800711DE6
:100D44007118A82EF01BA82EF11CB02ECD278331CC
:100D5400033003195002031C0800D32F1A11080092
:100D6400711ECE2EED01ED0AC02E19150430BE2ED3
:100D740099160530D8278331EE00E02E6E08013A2B
:100D84000319B72E053A0319BA2E013A0319E02EB6
:100D9400033A0319BB2EE02EEE01EE0AD82E991267
:100DA4000230D62E19110330ED00E02E6D08013A01
:100DB4000319D12E033A0319D42EE02EF11DFC2E73
:100DC400EB01EB0AEE2E99140430EC2E1916D827F9
:100DD40083310530EC000E2F6C08013A0319E52E1F
:100DE400053A0319E82E013A03190E2F033A0319A1
:100DF400EB2E0E2FEC01EC0A062F19120230042FF1
:100E040099100330EB000E2F6B08013A0319FF2EE3
:100E1400033A0319022F0E2F701F3E2FEA01EA0A2C
:100E24002A2F19130230FD00080099110330FD0028
:100E3400080018160430FD00080099170630D40184
:100E4400D501D201D301FD0008000530FD000800E2
:100E54007D08013A0319132F033A0319172F013A96
:100E640003191B2F073A03191F2F013A0319512F96
:100E7400033A0319272F512FFD01FD0A492F991316
:100E84000230EA00080018120330EA0008006A0879
:100E9400013A0319412F033A0319452F512F080032
:100EA400423040019F00F0309D0060309C001D08DE
:100EB400D900D8011C08D8044E018C12903040018E
:100EC4009E000800AF2783318F2783318427833125
:100ED4006D278331522F42018E018F0190019101C0
:100EE400920193018D0141019E019B019401023005
:100EF4009500960197019A0199011F30980084305A
:100F040093000800103051018D008F0191010530CC
:100F140093009201101808008C2F40019A01990146
:100F24009601970198019501C9309100FF30920014
:100F34008730930094017E01D901CE01C301E401FD
:100F44000130B800DA01E501C401B901CF01E601BD
:100F5400BA01C501D001DB0108005D304F019600E4
:100F640080309700473098007F30990037309A00DE
:100F7400DF309B0008007112F1117013EC01EC0AD0
:100F8400EB01EB0AEE01EE0AED01ED0AEA01EA0AD1
:100F9400FD01FD0A0800D00A0319D10A00305102EC
:100FA40008000430D001D1019A060800D401D5010B
:100FB400D201D301080099137014CA01CB010800AF
:100FC4000130FD00CA308400833085001200EA003D
:100FD4001200EB001200EC001200ED001200EE0013
:100FE4002030F001F101F201FC01840000308500A1
:0C0FF4004A308331CF2340018331FA2BB7
:020000040001F9
:0A000E009C3FFF3F9F0FFF0FFF3FD5
:00000001FF
